{
  "contractName": "EnergySupplyChain",
  "abi": [
    {
      "inputs": [],
      "stateMutability": "nonpayable",
      "type": "constructor"
    },
    {
      "anonymous": false,
      "inputs": [
        {
          "indexed": false,
          "internalType": "uint256",
          "name": "transactionID",
          "type": "uint256"
        }
      ],
      "name": "ETHExchanged",
      "type": "event"
    },
    {
      "anonymous": false,
      "inputs": [
        {
          "indexed": false,
          "internalType": "uint256",
          "name": "transactionID",
          "type": "uint256"
        }
      ],
      "name": "EnergyTransferred",
      "type": "event"
    },
    {
      "inputs": [],
      "name": "energyExchange",
      "outputs": [
        {
          "internalType": "address",
          "name": "",
          "type": "address"
        }
      ],
      "stateMutability": "view",
      "type": "function",
      "constant": true
    },
    {
      "inputs": [
        {
          "internalType": "address",
          "name": "",
          "type": "address"
        }
      ],
      "name": "households",
      "outputs": [
        {
          "internalType": "address payable",
          "name": "householdAddress",
          "type": "address"
        },
        {
          "internalType": "uint256",
          "name": "energyBalance",
          "type": "uint256"
        },
        {
          "internalType": "uint256",
          "name": "ethBalance",
          "type": "uint256"
        }
      ],
      "stateMutability": "view",
      "type": "function",
      "constant": true
    },
    {
      "inputs": [],
      "name": "transactionCount",
      "outputs": [
        {
          "internalType": "uint256",
          "name": "",
          "type": "uint256"
        }
      ],
      "stateMutability": "view",
      "type": "function",
      "constant": true
    },
    {
      "inputs": [
        {
          "internalType": "uint256",
          "name": "",
          "type": "uint256"
        }
      ],
      "name": "transactions",
      "outputs": [
        {
          "internalType": "address",
          "name": "from",
          "type": "address"
        },
        {
          "internalType": "address",
          "name": "to",
          "type": "address"
        },
        {
          "internalType": "uint256",
          "name": "energyAmount",
          "type": "uint256"
        },
        {
          "internalType": "uint256",
          "name": "costInETH",
          "type": "uint256"
        },
        {
          "internalType": "uint256",
          "name": "timestamp",
          "type": "uint256"
        }
      ],
      "stateMutability": "view",
      "type": "function",
      "constant": true
    },
    {
      "inputs": [
        {
          "internalType": "address payable",
          "name": "_householdAddress",
          "type": "address"
        }
      ],
      "name": "createHousehold",
      "outputs": [],
      "stateMutability": "nonpayable",
      "type": "function"
    },
    {
      "inputs": [
        {
          "internalType": "address",
          "name": "_householdAddress",
          "type": "address"
        }
      ],
      "name": "removeHousehold",
      "outputs": [],
      "stateMutability": "nonpayable",
      "type": "function"
    },
    {
      "inputs": [
        {
          "internalType": "address",
          "name": "_to",
          "type": "address"
        },
        {
          "internalType": "uint256",
          "name": "_energyAmount",
          "type": "uint256"
        }
      ],
      "name": "transferEnergy",
      "outputs": [],
      "stateMutability": "nonpayable",
      "type": "function"
    },
    {
      "inputs": [
        {
          "internalType": "uint256",
          "name": "_energyAmount",
          "type": "uint256"
        }
      ],
      "name": "exchangeETH",
      "outputs": [],
      "stateMutability": "payable",
      "type": "function",
      "payable": true
    },
    {
      "inputs": [
        {
          "internalType": "uint256",
          "name": "_transactionId",
          "type": "uint256"
        }
      ],
      "name": "confirmTransaction",
      "outputs": [],
      "stateMutability": "payable",
      "type": "function",
      "payable": true
    },
    {
      "inputs": [
        {
          "internalType": "address",
          "name": "_householdAddress",
          "type": "address"
        }
      ],
      "name": "getBalance",
      "outputs": [
        {
          "internalType": "uint256",
          "name": "energyBalance",
          "type": "uint256"
        },
        {
          "internalType": "uint256",
          "name": "ethBalance",
          "type": "uint256"
        }
      ],
      "stateMutability": "view",
      "type": "function",
      "constant": true
    }
  ],
  "bytecode": "0x608060405234801561001057600080fd5b50336000806101000a81548173ffffffffffffffffffffffffffffffffffffffff021916908373ffffffffffffffffffffffffffffffffffffffff1602179055506000600181905550611344806100686000396000f3fe6080604052600436106100915760003560e01c8063b77bf60011610059578063b77bf60014610184578063c01a8c84146101af578063db417927146101cb578063dcc4c46f146101f4578063f8b2cb4f1461021f57610091565b806386702f3d146100965780638dd86e01146100d55780639ace38c2146100fe578063a99059391461013f578063af795a8d14610168575b600080fd5b3480156100a257600080fd5b506100bd60048036038101906100b89190610da9565b61025d565b6040516100cc9392919061101a565b60405180910390f35b3480156100e157600080fd5b506100fc60048036038101906100f79190610da9565b6102a7565b005b34801561010a57600080fd5b5061012560048036038101906101209190610e37565b6103b1565b604051610136959493929190611051565b60405180910390f35b34801561014b57600080fd5b5061016660048036038101906101619190610dfb565b610427565b005b610182600480360381019061017d9190610e37565b610693565b005b34801561019057600080fd5b50610199610921565b6040516101a69190611124565b60405180910390f35b6101c960048036038101906101c49190610e37565b610927565b005b3480156101d757600080fd5b506101f260048036038101906101ed9190610dd2565b610b16565b005b34801561020057600080fd5b50610209610c77565b6040516102169190610fff565b60405180910390f35b34801561022b57600080fd5b5061024660048036038101906102419190610da9565b610c9b565b60405161025492919061113f565b60405180910390f35b60026020528060005260406000206000915090508060000160009054906101000a900473ffffffffffffffffffffffffffffffffffffffff16908060010154908060020154905083565b60008054906101000a900473ffffffffffffffffffffffffffffffffffffffff1673ffffffffffffffffffffffffffffffffffffffff163373ffffffffffffffffffffffffffffffffffffffff1614610335576040517f08c379a000000000000000000000000000000000000000000000000000000000815260040161032c90611104565b60405180910390fd5b600260008273ffffffffffffffffffffffffffffffffffffffff1673ffffffffffffffffffffffffffffffffffffffff168152602001908152602001600020600080820160006101000a81549073ffffffffffffffffffffffffffffffffffffffff021916905560018201600090556002820160009055505050565b60036020528060005260406000206000915090508060000160009054906101000a900473ffffffffffffffffffffffffffffffffffffffff16908060010160009054906101000a900473ffffffffffffffffffffffffffffffffffffffff16908060020154908060030154908060040154905085565b6000600260003373ffffffffffffffffffffffffffffffffffffffff1673ffffffffffffffffffffffffffffffffffffffff168152602001908152602001600020905081816001015410156104b1576040517f08c379a00000000000000000000000000000000000000000000000000000000081526004016104a8906110c4565b60405180910390fd5b818160010160008282546104c591906111cf565b9250508190555081600260008573ffffffffffffffffffffffffffffffffffffffff1673ffffffffffffffffffffffffffffffffffffffff168152602001908152602001600020600101600082825461051e9190611179565b925050819055506040518060a001604052803373ffffffffffffffffffffffffffffffffffffffff1681526020018473ffffffffffffffffffffffffffffffffffffffff168152602001838152602001600081526020014281525060036000600154815260200190815260200160002060008201518160000160006101000a81548173ffffffffffffffffffffffffffffffffffffffff021916908373ffffffffffffffffffffffffffffffffffffffff16021790555060208201518160010160006101000a81548173ffffffffffffffffffffffffffffffffffffffff021916908373ffffffffffffffffffffffffffffffffffffffff1602179055506040820151816002015560608201518160030155608082015181600401559050507f824ceadd82edb2a7a77046a5a2973508b9535678bd5e568c35dc4eb4b02c8f7e60015460405161066e9190611124565b60405180910390a16001600081548092919061068990611251565b9190505550505050565b6000600260003373ffffffffffffffffffffffffffffffffffffffff1673ffffffffffffffffffffffffffffffffffffffff1681526020019081526020016000209050818160010154101561071d576040517f08c379a0000000000000000000000000000000000000000000000000000000008152600401610714906110c4565b60405180910390fd5b81341461075f576040517f08c379a0000000000000000000000000000000000000000000000000000000008152600401610756906110a4565b60405180910390fd5b8181600101600082825461077391906111cf565b925050819055503481600201600082825461078e9190611179565b925050819055506040518060a001604052803373ffffffffffffffffffffffffffffffffffffffff16815260200160008054906101000a900473ffffffffffffffffffffffffffffffffffffffff1673ffffffffffffffffffffffffffffffffffffffff1681526020018381526020013481526020014281525060036000600154815260200190815260200160002060008201518160000160006101000a81548173ffffffffffffffffffffffffffffffffffffffff021916908373ffffffffffffffffffffffffffffffffffffffff16021790555060208201518160010160006101000a81548173ffffffffffffffffffffffffffffffffffffffff021916908373ffffffffffffffffffffffffffffffffffffffff1602179055506040820151816002015560608201518160030155608082015181600401559050507f57a9bda5882629622f3992d1b61ecd9218a34f1215036ccc481331de12ec6f9e6001546040516108fd9190611124565b60405180910390a16001600081548092919061091890611251565b91905055505050565b60015481565b60008054906101000a900473ffffffffffffffffffffffffffffffffffffffff1673ffffffffffffffffffffffffffffffffffffffff163373ffffffffffffffffffffffffffffffffffffffff16146109b5576040517f08c379a00000000000000000000000000000000000000000000000000000000081526004016109ac90611104565b60405180910390fd5b600060036000838152602001908152602001600020905080600301543414610a12576040517f08c379a0000000000000000000000000000000000000000000000000000000008152600401610a09906110e4565b60405180910390fd5b34600260008360010160009054906101000a900473ffffffffffffffffffffffffffffffffffffffff1673ffffffffffffffffffffffffffffffffffffffff1673ffffffffffffffffffffffffffffffffffffffff1681526020019081526020016000206002016000828254610a889190611179565b9250508190555034600260008060009054906101000a900473ffffffffffffffffffffffffffffffffffffffff1673ffffffffffffffffffffffffffffffffffffffff1673ffffffffffffffffffffffffffffffffffffffff1681526020019081526020016000206002016000828254610b0291906111cf565b925050819055504281600401819055505050565b60008054906101000a900473ffffffffffffffffffffffffffffffffffffffff1673ffffffffffffffffffffffffffffffffffffffff163373ffffffffffffffffffffffffffffffffffffffff1614610ba4576040517f08c379a0000000000000000000000000000000000000000000000000000000008152600401610b9b90611104565b60405180910390fd5b60405180606001604052808273ffffffffffffffffffffffffffffffffffffffff168152602001600081526020016000815250600260008373ffffffffffffffffffffffffffffffffffffffff1673ffffffffffffffffffffffffffffffffffffffff16815260200190815260200160002060008201518160000160006101000a81548173ffffffffffffffffffffffffffffffffffffffff021916908373ffffffffffffffffffffffffffffffffffffffff160217905550602082015181600101556040820151816002015590505050565b60008054906101000a900473ffffffffffffffffffffffffffffffffffffffff1681565b6000806000600260008573ffffffffffffffffffffffffffffffffffffffff1673ffffffffffffffffffffffffffffffffffffffff1681526020019081526020016000206040518060600160405290816000820160009054906101000a900473ffffffffffffffffffffffffffffffffffffffff1673ffffffffffffffffffffffffffffffffffffffff1673ffffffffffffffffffffffffffffffffffffffff168152602001600182015481526020016002820154815250509050806020015181604001519250925050915091565b600081359050610d79816112c9565b92915050565b600081359050610d8e816112e0565b92915050565b600081359050610da3816112f7565b92915050565b600060208284031215610dbb57600080fd5b6000610dc984828501610d6a565b91505092915050565b600060208284031215610de457600080fd5b6000610df284828501610d7f565b91505092915050565b60008060408385031215610e0e57600080fd5b6000610e1c85828601610d6a565b9250506020610e2d85828601610d94565b9150509250929050565b600060208284031215610e4957600080fd5b6000610e5784828501610d94565b91505092915050565b610e6981611215565b82525050565b610e7881611203565b82525050565b6000610e8b603583611168565b91507f4554482073656e7420646f65736e2774206d617463682074686520656e65726760008301527f7920616d6f756e7420746f2065786368616e67652e00000000000000000000006020830152604082019050919050565b6000610ef1601c83611168565b91507f496e73756666696369656e7420656e657267792062616c616e63652e000000006000830152602082019050919050565b6000610f31602c83611168565b91507f4554482073656e7420646f65736e2774206d6174636820746865207472616e7360008301527f616374696f6e20636f73742e00000000000000000000000000000000000000006020830152604082019050919050565b6000610f97602c83611168565b91507f4f6e6c7920456e657267792045786368616e67652063616e2063616c6c20746860008301527f69732066756e6374696f6e2e00000000000000000000000000000000000000006020830152604082019050919050565b610ff981611247565b82525050565b60006020820190506110146000830184610e6f565b92915050565b600060608201905061102f6000830186610e60565b61103c6020830185610ff0565b6110496040830184610ff0565b949350505050565b600060a0820190506110666000830188610e6f565b6110736020830187610e6f565b6110806040830186610ff0565b61108d6060830185610ff0565b61109a6080830184610ff0565b9695505050505050565b600060208201905081810360008301526110bd81610e7e565b9050919050565b600060208201905081810360008301526110dd81610ee4565b9050919050565b600060208201905081810360008301526110fd81610f24565b9050919050565b6000602082019050818103600083015261111d81610f8a565b9050919050565b60006020820190506111396000830184610ff0565b92915050565b60006040820190506111546000830185610ff0565b6111616020830184610ff0565b9392505050565b600082825260208201905092915050565b600061118482611247565b915061118f83611247565b9250827fffffffffffffffffffffffffffffffffffffffffffffffffffffffffffffffff038211156111c4576111c361129a565b5b828201905092915050565b60006111da82611247565b91506111e583611247565b9250828210156111f8576111f761129a565b5b828203905092915050565b600061120e82611227565b9050919050565b600061122082611227565b9050919050565b600073ffffffffffffffffffffffffffffffffffffffff82169050919050565b6000819050919050565b600061125c82611247565b91507fffffffffffffffffffffffffffffffffffffffffffffffffffffffffffffffff82141561128f5761128e61129a565b5b600182019050919050565b7f4e487b7100000000000000000000000000000000000000000000000000000000600052601160045260246000fd5b6112d281611203565b81146112dd57600080fd5b50565b6112e981611215565b81146112f457600080fd5b50565b61130081611247565b811461130b57600080fd5b5056fea2646970667358221220aed8ec36849aaafb735482f52d1bdd5ded9db42a1397621d06b0998bae284e8a64736f6c63430008000033",
  "immutableReferences": {},
  "source": "pragma solidity ^0.8.0;\n\ncontract EnergySupplyChain {\n    // Define the structure for the EnergyTransaction\n    struct PowerTransaction {\n        address from;\n        address to;\n        uint256 energyAmount;\n        uint256 costInETH;\n        uint256 timestamp;\n    }\n\n    // Define the structure for a Household\n    struct Household {\n        address payable householdAddress;\n        uint256 energyBalance;\n        uint256 ethBalance;\n    }\n\n    // State variables\n    address public energyExchange;\n    uint256 public transactionCount;\n\n    // Mappings\n    mapping(address => Household) public households;\n    mapping(uint256 => PowerTransaction) public transactions;\n\n    // Events\n    event EnergyTransferred(uint256 transactionID);\n    event ETHExchanged(uint256 transactionID);\n\n    // Modifier\n    modifier onlyEnergyExchange {\n        require(msg.sender == energyExchange, \"Only Energy Exchange can call this function.\");\n        _;\n    }\n\n    // Constructor function\n    constructor() {\n        energyExchange = msg.sender;\n        transactionCount = 0;\n    }\n        // Function to create a new household\n    function createHousehold(address payable _householdAddress) public onlyEnergyExchange {\n        households[_householdAddress] = Household(_householdAddress, 0, 0);\n    }\n\n    // Function to remove a household\n    function removeHousehold(address _householdAddress) public onlyEnergyExchange {\n        delete households[_householdAddress];\n    }\n\n    // Function to transfer energy from one household to another\n    function transferEnergy(address _to, uint256 _energyAmount) public {\n        Household storage sender = households[msg.sender];\n\n        require(sender.energyBalance >= _energyAmount, \"Insufficient energy balance.\");\n\n        sender.energyBalance -= _energyAmount;\n        households[_to].energyBalance += _energyAmount;\n\n        transactions[transactionCount] = PowerTransaction(\n            msg.sender,\n            _to,\n            _energyAmount,\n            0,\n            block.timestamp\n        );\n\n        emit EnergyTransferred(transactionCount);\n\n        transactionCount++;\n    }\n\n    // Function to exchange energy for ETH\n    function exchangeETH(uint256 _energyAmount) public payable {\n        Household storage sender = households[msg.sender];\n\n        require(sender.energyBalance >= _energyAmount, \"Insufficient energy balance.\");\n\n        require(msg.value == _energyAmount, \"ETH sent doesn't match the energy amount to exchange.\");\n\n        sender.energyBalance -= _energyAmount;\n        sender.ethBalance += msg.value;\n\n        transactions[transactionCount] = PowerTransaction(\n            msg.sender,\n            energyExchange,\n            _energyAmount,\n            msg.value,\n            block.timestamp\n        );\n\n        emit ETHExchanged(transactionCount);\n\n        transactionCount++;\n    }\n\n    // Function to confirm a transaction after the ETH has been transferred\n    function confirmTransaction(uint256 _transactionId) public payable onlyEnergyExchange {\n        PowerTransaction storage transaction = transactions[_transactionId];\n\n        require(msg.value == transaction.costInETH, \"ETH sent doesn't match the transaction cost.\");\n\n        households[transaction.to].ethBalance += msg.value;\n        households[energyExchange].ethBalance -= msg.value;\n\n        transaction.timestamp = block.timestamp;\n    }\n\n    // Function to get the energy and ETH balance of a household\n    function getBalance(address _householdAddress) public view returns (uint256 energyBalance, uint256 ethBalance) {\n        Household memory household = households[_householdAddress];\n        return (household.energyBalance, household.ethBalance);\n    }\n}",
  "sourcePath": "/Users/akash/electricity_supply/contracts/EnergySupplyChain.sol",
  "compiler": {
    "name": "solc",
    "version": "0.8.0+commit.c7dfd78e.Emscripten.clang"
  },
  "schemaVersion": "3.4.13",
  "updatedAt": "2023-05-29T16:24:02.061Z",
  "networkType": "ethereum",
  "devdoc": {
    "kind": "dev",
    "methods": {},
    "version": 1
  },
  "userdoc": {
    "kind": "user",
    "methods": {},
    "version": 1
  }
}