{
  "contractName": "EnergySupplyChain",
  "abi": [
    {
      "inputs": [
        {
          "internalType": "uint256",
          "name": "_exchangeRate",
          "type": "uint256"
        }
      ],
      "stateMutability": "nonpayable",
      "type": "constructor"
    },
    {
      "anonymous": false,
      "inputs": [
        {
          "indexed": true,
          "internalType": "address",
          "name": "buyer",
          "type": "address"
        },
        {
          "indexed": false,
          "internalType": "uint256",
          "name": "amount",
          "type": "uint256"
        },
        {
          "indexed": false,
          "internalType": "uint256",
          "name": "balance",
          "type": "uint256"
        }
      ],
      "name": "EnergyPurchased",
      "type": "event"
    },
    {
      "anonymous": false,
      "inputs": [
        {
          "indexed": true,
          "internalType": "address",
          "name": "seller",
          "type": "address"
        },
        {
          "indexed": false,
          "internalType": "uint256",
          "name": "amount",
          "type": "uint256"
        },
        {
          "indexed": false,
          "internalType": "uint256",
          "name": "balance",
          "type": "uint256"
        }
      ],
      "name": "EnergySold",
      "type": "event"
    },
    {
      "inputs": [
        {
          "internalType": "address",
          "name": "",
          "type": "address"
        }
      ],
      "name": "energyBalances",
      "outputs": [
        {
          "internalType": "uint256",
          "name": "",
          "type": "uint256"
        }
      ],
      "stateMutability": "view",
      "type": "function",
      "constant": true
    },
    {
      "inputs": [],
      "name": "exchangeRate",
      "outputs": [
        {
          "internalType": "uint256",
          "name": "",
          "type": "uint256"
        }
      ],
      "stateMutability": "view",
      "type": "function",
      "constant": true
    },
    {
      "inputs": [],
      "name": "owner",
      "outputs": [
        {
          "internalType": "address",
          "name": "",
          "type": "address"
        }
      ],
      "stateMutability": "view",
      "type": "function",
      "constant": true
    },
    {
      "inputs": [
        {
          "internalType": "uint256",
          "name": "_exchangeRate",
          "type": "uint256"
        }
      ],
      "name": "setExchangeRate",
      "outputs": [],
      "stateMutability": "nonpayable",
      "type": "function"
    },
    {
      "inputs": [],
      "name": "buyEnergy",
      "outputs": [],
      "stateMutability": "payable",
      "type": "function",
      "payable": true
    },
    {
      "inputs": [
        {
          "internalType": "uint256",
          "name": "energy",
          "type": "uint256"
        }
      ],
      "name": "sellEnergy",
      "outputs": [],
      "stateMutability": "nonpayable",
      "type": "function"
    },
    {
      "inputs": [
        {
          "internalType": "address",
          "name": "_owner",
          "type": "address"
        }
      ],
      "name": "balanceOf",
      "outputs": [
        {
          "internalType": "uint256",
          "name": "",
          "type": "uint256"
        }
      ],
      "stateMutability": "view",
      "type": "function",
      "constant": true
    }
  ],
  "bytecode": "0x608060405234801561001057600080fd5b50604051610b14380380610b1483398181016040528101906100329190610095565b8060018190555033600260006101000a81548173ffffffffffffffffffffffffffffffffffffffff021916908373ffffffffffffffffffffffffffffffffffffffff160217905550506100df565b60008151905061008f816100c8565b92915050565b6000602082840312156100a757600080fd5b60006100b584828501610080565b91505092915050565b6000819050919050565b6100d1816100be565b81146100dc57600080fd5b50565b610a26806100ee6000396000f3fe6080604052600436106100705760003560e01c806370a082311161004e57806370a08231146100d35780638da5cb5b14610110578063d77ab8ab1461013b578063db068e0e1461017857610070565b806339e765a1146100755780633ba0b9a91461007f5780634326ee36146100aa575b600080fd5b61007d6101a1565b005b34801561008b57600080fd5b506100946102dc565b6040516100a191906107be565b60405180910390f35b3480156100b657600080fd5b506100d160048036038101906100cc9190610616565b6102e2565b005b3480156100df57600080fd5b506100fa60048036038101906100f591906105ed565b6104a3565b60405161010791906107be565b60405180910390f35b34801561011c57600080fd5b506101256104eb565b6040516101329190610743565b60405180910390f35b34801561014757600080fd5b50610162600480360381019061015d91906105ed565b610511565b60405161016f91906107be565b60405180910390f35b34801561018457600080fd5b5061019f600480360381019061019a9190610616565b610529565b005b600034116101e4576040517f08c379a00000000000000000000000000000000000000000000000000000000081526004016101db9061079e565b60405180910390fd5b6000600154346101f4919061089a565b9050806000803373ffffffffffffffffffffffffffffffffffffffff1673ffffffffffffffffffffffffffffffffffffffff16815260200190815260200160002060008282546102449190610813565b925050819055503373ffffffffffffffffffffffffffffffffffffffff167f7d1f0497fd8309dcce3b22746ddfcfe02e2dcd8b7a525b252c46cf4f0bb7adcb826000803373ffffffffffffffffffffffffffffffffffffffff1673ffffffffffffffffffffffffffffffffffffffff168152602001908152602001600020546040516102d19291906107d9565b60405180910390a250565b60015481565b806000803373ffffffffffffffffffffffffffffffffffffffff1673ffffffffffffffffffffffffffffffffffffffff168152602001908152602001600020541015610363576040517f08c379a000000000000000000000000000000000000000000000000000000000815260040161035a9061077e565b60405180910390fd5b6000600154826103739190610869565b90503373ffffffffffffffffffffffffffffffffffffffff166108fc829081150290604051600060405180830381858888f193505050501580156103bb573d6000803e3d6000fd5b50816000803373ffffffffffffffffffffffffffffffffffffffff1673ffffffffffffffffffffffffffffffffffffffff168152602001908152602001600020600082825461040a91906108f4565b925050819055503373ffffffffffffffffffffffffffffffffffffffff167f70c565eaf7e964ec96b0279093ac75b59ac769a3176eb59bfaade53e3ae14e6b836000803373ffffffffffffffffffffffffffffffffffffffff1673ffffffffffffffffffffffffffffffffffffffff168152602001908152602001600020546040516104979291906107d9565b60405180910390a25050565b60008060008373ffffffffffffffffffffffffffffffffffffffff1673ffffffffffffffffffffffffffffffffffffffff168152602001908152602001600020549050919050565b600260009054906101000a900473ffffffffffffffffffffffffffffffffffffffff1681565b60006020528060005260406000206000915090505481565b600260009054906101000a900473ffffffffffffffffffffffffffffffffffffffff1673ffffffffffffffffffffffffffffffffffffffff163373ffffffffffffffffffffffffffffffffffffffff16146105b9576040517f08c379a00000000000000000000000000000000000000000000000000000000081526004016105b09061075e565b60405180910390fd5b8060018190555050565b6000813590506105d2816109c2565b92915050565b6000813590506105e7816109d9565b92915050565b6000602082840312156105ff57600080fd5b600061060d848285016105c3565b91505092915050565b60006020828403121561062857600080fd5b6000610636848285016105d8565b91505092915050565b61064881610928565b82525050565b600061065b602683610802565b91507f4f6e6c7920746865206f776e65722063616e20706572666f726d20746869732060008301527f616374696f6e00000000000000000000000000000000000000000000000000006020830152604082019050919050565b60006106c1601183610802565b91507f4e6f7420656e6f75676820656e657267790000000000000000000000000000006000830152602082019050919050565b6000610701601d83610802565b91507f53656e6420736f6d6520657468657220746f2062757920656e657267790000006000830152602082019050919050565b61073d8161095a565b82525050565b6000602082019050610758600083018461063f565b92915050565b600060208201905081810360008301526107778161064e565b9050919050565b60006020820190508181036000830152610797816106b4565b9050919050565b600060208201905081810360008301526107b7816106f4565b9050919050565b60006020820190506107d36000830184610734565b92915050565b60006040820190506107ee6000830185610734565b6107fb6020830184610734565b9392505050565b600082825260208201905092915050565b600061081e8261095a565b91506108298361095a565b9250827fffffffffffffffffffffffffffffffffffffffffffffffffffffffffffffffff0382111561085e5761085d610964565b5b828201905092915050565b60006108748261095a565b915061087f8361095a565b92508261088f5761088e610993565b5b828204905092915050565b60006108a58261095a565b91506108b08361095a565b9250817fffffffffffffffffffffffffffffffffffffffffffffffffffffffffffffffff04831182151516156108e9576108e8610964565b5b828202905092915050565b60006108ff8261095a565b915061090a8361095a565b92508282101561091d5761091c610964565b5b828203905092915050565b60006109338261093a565b9050919050565b600073ffffffffffffffffffffffffffffffffffffffff82169050919050565b6000819050919050565b7f4e487b7100000000000000000000000000000000000000000000000000000000600052601160045260246000fd5b7f4e487b7100000000000000000000000000000000000000000000000000000000600052601260045260246000fd5b6109cb81610928565b81146109d657600080fd5b50565b6109e28161095a565b81146109ed57600080fd5b5056fea26469706673582212203640aef21717a2fe1ef8f0c3cfd81e35008047f81d8a703fba6b9a25847dc8f864736f6c63430008000033",
  "immutableReferences": {},
  "source": "// SPDX-License-Identifier: MIT\npragma solidity ^0.8.0;\n\ncontract EnergySupplyChain {\n\n    mapping (address => uint) public energyBalances;\n    uint public exchangeRate;\n    address public owner;\n\n    event EnergyPurchased(address indexed buyer, uint amount, uint balance);\n    event EnergySold(address indexed seller, uint amount, uint balance);\n\n    modifier onlyOwner {\n        require(msg.sender == owner, \"Only the owner can perform this action\");\n        _;\n    }\n\n    constructor(uint _exchangeRate) {\n        exchangeRate = _exchangeRate;\n        owner = msg.sender;\n    }\n\n    function setExchangeRate(uint _exchangeRate) public onlyOwner {\n        exchangeRate = _exchangeRate;\n    }\n\n    function buyEnergy() public payable {\n        require(msg.value > 0, \"Send some ether to buy energy\");\n        uint energyToBuy = msg.value * exchangeRate;\n        energyBalances[msg.sender] += energyToBuy;\n        emit EnergyPurchased(msg.sender, energyToBuy, energyBalances[msg.sender]);\n    }\n\n    function sellEnergy(uint energy) public {\n        require(energyBalances[msg.sender] >= energy, \"Not enough energy\");\n        uint ethToPay = energy / exchangeRate;\n        payable(msg.sender).transfer(ethToPay);\n        energyBalances[msg.sender] -= energy;\n        emit EnergySold(msg.sender, energy, energyBalances[msg.sender]);\n    }\n\n    function balanceOf(address _owner) public view returns (uint256) {\n        return energyBalances[_owner];\n    }\n}",
  "sourcePath": "/Users/akash/electricity_supply_3/contracts/EnergySupplyChain.sol",
  "compiler": {
    "name": "solc",
    "version": "0.8.0+commit.c7dfd78e.Emscripten.clang"
  },
  "schemaVersion": "3.4.13",
  "updatedAt": "2023-05-31T23:42:48.572Z",
  "networkType": "ethereum",
  "devdoc": {
    "kind": "dev",
    "methods": {},
    "version": 1
  },
  "userdoc": {
    "kind": "user",
    "methods": {},
    "version": 1
  }
}